:0300000002009764
:0C009700787FE4F6D8FD75812E0200DEB3
:0E031A001202F77B417D017F0112033F80FE3E
:1002E200EF1FAC0670011E4C600A7D027CEFDCFE43
:0402F200DDFC80ECC3
:0102F60022E5
:0C0328000A083F065B4F666D7D077F6F83
:10012300EF14B40800505490013875F003A4C5834C
:1001330025F0C583730201500201540201580201E4
:100143005C020160020168020170020178D2A4809E
:100153000ED2A48012D2A48016D2A4801AC2A4D232
:10016300A3D2A28016C2A4D2A3C2A2800EC2A4C2EA
:10017300A3D2A28006C2A4C2A3C2A274082DF8E629
:0D018300F5807F017E001202E2E4F580228B
:06030B00C2A58F80D2A7FD
:080311007F027EEFDEFEDFFC3F
:0103190022C1
:0A033500C2A612030BC2A7020311B7
:10029100CFCDCFCECCCE1200427C007D0A120042DF
:0402A100ED2430FF19
:0A02A500D2A612030BC2A702031138
:1002CC00AE07BE0104ED148006BE0209ED243F44C6
:0602DC0080FF1203352231
:1002F7007F381203357F0C1203357F061203357FD3
:0403070001020335B7
:0A033F00AC031202CCAF040202A5C9
:06026E008B2C8A2D892E65
:100274001202CCE4FDAB2CAA2DA92E8D827583002D
:0C028400120003FF60061202A50D80E9C5
:01029000224B
:0C023B007F0AEA24FFFDE434FFFC7E0093
:080247008E288F298C2A8D2BD3
:10024F007F017E00E4FBEBC3952BE52A6480F874F5
:0E025F008098500AAC28AD291200300B80E8C0
:01026D00226E
:0402AF008A1B8B1CFF
:1002B3001202CCAA1DEAD39400400D12023BAC1BE0
:0802C300AD1C1202911A80ED3E
:0102CB002210
:100190001202CCC3EA64809480400B7F2B1202A52C
:1001A0008A178B18800E7F2D1202A5C3E49BF518C9
:1001B000E49AF517AA16EAD39400400D12023BAC5C
:0901C00017AD181202911A80ED2E
:0101C9002213
:0401CA008A208B21DB
:1001CE001202CCAA22EAD3940040297F1012023DDB
:1001DE00AC20AD21CFCDCFCECCCE120042EF540FFE
:1001EE00FEC3940AEE5004243080022437FF12021C
:0401FE00A51A80D1ED
:0102020022D9
:040203008A258B2697
:100207001202CCAA27EAD394004028EA24FFFDE48F
:1002170034FFFC7F027E00120247AC25AD26CFCD0E
:10022700CFCECCCE120042EF54012430FF1202A5EC
:030237001A80D258
:01023A0022A1
:1000A30002031AE493A3F8E493A34003F68001F256
:1000B30008DFF48029E493A3F85407240CC8C3335E
:1000C300C4540F4420C8834004F456800146F6DF2D
:1000D300E4800B0102040810204080900328E47E92
:1000E300019360BCA3FF543F30E509541FFEE49322
:1000F300A360010ECF54C025E060A840B8E493A3E9
:10010300FAE493A3F8E493A3C8C582C8CAC583CA13
:10011300F0A3C8C582C8CAC583CADFE9DEE780BECB
:0103340000C8
:10000300BB010CE58229F582E5833AF583E02250B2
:1000130006E92582F8E622BBFE06E92582F8E222FC
:0D002300E58229F582E5833AF583E4932216
:10003000EF8DF0A4A8F0CF8CF0A428CE8DF0A42EE4
:02004000FE229E
:10004200BC000BBE0029EF8DF084FFADF022E4CCA2
:10005200F875F008EF2FFFEE33FEEC33FCEE9DEC6B
:10006200984005FCEE9DFE0FD5F0E9E4CEFD22EDB1
:10007200F8F5F0EE8420D21CFEADF075F008EF2FFB
:10008200FFED33FD4007985006D5F0F222C398FDEC
:050092000FD5F0EA2289
:00000001FF
