BL51 BANKED LINKER/LOCATER V6.22                                                        09/11/2024  21:05:31  PAGE 1


BL51 BANKED LINKER/LOCATER V6.22, INVOKED BY:
D:\PROGRAM FILES\KEIL_V5\C51\BIN\BL51.EXE .\Objects\STARTUP.obj, .\Objects\main.obj, .\Objects\Delay.obj, .\Objects\Nixi
>> e.obj, .\Objects\LCD1602.obj TO .\Objects\project PRINT (.\Listings\project.m51) RAMSIZE (256) DISABLEWARNING (16)


MEMORY MODEL: SMALL


INPUT MODULES INCLUDED:
  .\Objects\STARTUP.obj (?C_STARTUP)
  .\Objects\main.obj (MAIN)
  .\Objects\Delay.obj (DELAY)
  .\Objects\Nixie.obj (NIXIE)
  .\Objects\LCD1602.obj (LCD1602)
  D:\PROGRAM FILES\KEIL_V5\C51\LIB\C51S.LIB (?C_INIT)
  D:\PROGRAM FILES\KEIL_V5\C51\LIB\C51S.LIB (?C?CLDOPTR)
  D:\PROGRAM FILES\KEIL_V5\C51\LIB\C51S.LIB (?C?IMUL)
  D:\PROGRAM FILES\KEIL_V5\C51\LIB\C51S.LIB (?C?UIDIV)


LINK MAP OF MODULE:  .\Objects\project (?C_STARTUP)


            TYPE    BASE      LENGTH    RELOCATION   SEGMENT NAME
            -----------------------------------------------------

            * * * * * * *   D A T A   M E M O R Y   * * * * * * *
            REG     0000H     0008H     ABSOLUTE     "REG BANK 0"
            DATA    0008H     000AH     UNIT         ?DT?NIXIE
            DATA    0012H     0007H     UNIT         ?DT?_LCD_SHOWSIGNEDNUM?LCD1602
            DATA    0019H     0005H     UNIT         ?DT?_LCD_SHOWNUM?LCD1602
            DATA    001EH     0005H     UNIT         ?DT?_LCD_SHOWHEXNUM?LCD1602
            DATA    0023H     0005H     UNIT         ?DT?_LCD_SHOWBINNUM?LCD1602
            DATA    0028H     0004H     UNIT         ?DT?_LCD_POW?LCD1602
            DATA    002CH     0003H     UNIT         ?DT?_LCD_SHOWSTRING?LCD1602
            IDATA   002FH     0001H     UNIT         ?STACK

            * * * * * * *   C O D E   M E M O R Y   * * * * * * *
            CODE    0000H     0003H     ABSOLUTE     
            CODE    0003H     0094H     UNIT         ?C?LIB_CODE
            CODE    0097H     008CH     UNIT         ?C_C51STARTUP
            CODE    0123H     006DH     UNIT         ?PR?_NIXIE?NIXIE
            CODE    0190H     003AH     UNIT         ?PR?_LCD_SHOWSIGNEDNUM?LCD1602
            CODE    01CAH     0039H     UNIT         ?PR?_LCD_SHOWHEXNUM?LCD1602
            CODE    0203H     0038H     UNIT         ?PR?_LCD_SHOWBINNUM?LCD1602
            CODE    023BH     0033H     UNIT         ?PR?_LCD_POW?LCD1602
            CODE    026EH     0023H     UNIT         ?PR?_LCD_SHOWSTRING?LCD1602
            CODE    0291H     001EH     UNIT         ?PR?_LCD_WRITEDATA?LCD1602
            CODE    02AFH     001DH     UNIT         ?PR?_LCD_SHOWNUM?LCD1602
            CODE    02CCH     0016H     UNIT         ?PR?_LCD_SETCURSOR?LCD1602
            CODE    02E2H     0015H     UNIT         ?PR?_DELAY?DELAY
            CODE    02F7H     0014H     UNIT         ?PR?LCD_INIT?LCD1602
            CODE    030BH     000FH     UNIT         ?PR?LCD_DELAY?LCD1602
            CODE    031AH     000EH     UNIT         ?PR?MAIN?MAIN
            CODE    0328H     000DH     UNIT         ?C_INITSEG
            CODE    0335H     000AH     UNIT         ?PR?_LCD_WRITECOMMAND?LCD1602
            CODE    033FH     000AH     UNIT         ?PR?_LCD_SHOWCHAR?LCD1602

BL51 BANKED LINKER/LOCATER V6.22                                                      09/11/2024  21:05:31  PAGE 2




OVERLAY MAP OF MODULE:   .\Objects\project (?C_STARTUP)


SEGMENT
  +--> CALLED SEGMENT
---------------------
?C_C51STARTUP
  +--> ?PR?MAIN?MAIN
  +--> ?C_INITSEG

?PR?MAIN?MAIN
  +--> ?PR?LCD_INIT?LCD1602
  +--> ?PR?_LCD_SHOWCHAR?LCD1602

?PR?LCD_INIT?LCD1602
  +--> ?PR?_LCD_WRITECOMMAND?LCD1602

?PR?_LCD_WRITECOMMAND?LCD1602
  +--> ?PR?LCD_DELAY?LCD1602

?PR?_LCD_SHOWCHAR?LCD1602
  +--> ?PR?_LCD_SETCURSOR?LCD1602
  +--> ?PR?_LCD_WRITEDATA?LCD1602

?PR?_LCD_SETCURSOR?LCD1602
  +--> ?PR?_LCD_WRITECOMMAND?LCD1602

?PR?_LCD_WRITEDATA?LCD1602
  +--> ?PR?LCD_DELAY?LCD1602



SYMBOL TABLE OF MODULE:  .\Objects\project (?C_STARTUP)

  VALUE           TYPE          NAME
  ----------------------------------

  -------         MODULE        ?C_STARTUP
  C:0097H         SEGMENT       ?C_C51STARTUP
  I:002FH         SEGMENT       ?STACK
  C:0000H         PUBLIC        ?C_STARTUP
  D:00E0H         SYMBOL        ACC
  D:00F0H         SYMBOL        B
  D:0083H         SYMBOL        DPH
  D:0082H         SYMBOL        DPL
  N:0000H         SYMBOL        IBPSTACK
  N:0100H         SYMBOL        IBPSTACKTOP
  N:0080H         SYMBOL        IDATALEN
  C:009AH         SYMBOL        IDATALOOP
  N:0000H         SYMBOL        PBPSTACK
  N:0100H         SYMBOL        PBPSTACKTOP
  N:0000H         SYMBOL        PDATALEN
  N:0000H         SYMBOL        PDATASTART
  N:0000H         SYMBOL        PPAGE
  N:0000H         SYMBOL        PPAGEENABLE
BL51 BANKED LINKER/LOCATER V6.22                                                      09/11/2024  21:05:31  PAGE 3


  D:00A0H         SYMBOL        PPAGE_SFR
  D:0081H         SYMBOL        SP
  C:0097H         SYMBOL        STARTUP1
  N:0000H         SYMBOL        XBPSTACK
  N:0000H         SYMBOL        XBPSTACKTOP
  N:0000H         SYMBOL        XDATALEN
  N:0000H         SYMBOL        XDATASTART
  C:0000H         LINE#         126
  C:0097H         LINE#         133
  C:0099H         LINE#         134
  C:009AH         LINE#         135
  C:009BH         LINE#         136
  C:009DH         LINE#         185
  C:00A0H         LINE#         196
  -------         ENDMOD        ?C_STARTUP

  -------         MODULE        MAIN
  C:0000H         SYMBOL        _ICE_DUMMY_
  C:031AH         PUBLIC        main
  -------         PROC          MAIN
  C:031AH         LINE#         7
  C:031AH         LINE#         8
  C:031AH         LINE#         9
  C:031DH         LINE#         10
  C:0326H         LINE#         11
  C:0326H         LINE#         12
  C:0326H         LINE#         14
  -------         ENDPROC       MAIN
  -------         ENDMOD        MAIN

  -------         MODULE        DELAY
  C:0000H         SYMBOL        _ICE_DUMMY_
  C:02E2H         PUBLIC        _Delay
  -------         PROC          _DELAY
  D:0006H         SYMBOL        ms
  -------         DO            
  D:0005H         SYMBOL        i
  D:0004H         SYMBOL        j
  -------         ENDDO         
  C:02E2H         LINE#         3
  C:02E2H         LINE#         4
  C:02E2H         LINE#         6
  C:02ECH         LINE#         7
  C:02ECH         LINE#         8
  C:02EEH         LINE#         9
  C:02F0H         LINE#         11
  C:02F0H         LINE#         12
  C:02F2H         LINE#         13
  C:02F4H         LINE#         14
  C:02F6H         LINE#         15
  -------         ENDPROC       _DELAY
  -------         ENDMOD        DELAY

  -------         MODULE        NIXIE
  C:0000H         SYMBOL        _ICE_DUMMY_
  D:0080H         PUBLIC        P0
  C:0123H         PUBLIC        _Nixie
BL51 BANKED LINKER/LOCATER V6.22                                                      09/11/2024  21:05:31  PAGE 4


  B:00A0H.2       PUBLIC        P2_2
  B:00A0H.3       PUBLIC        P2_3
  B:00A0H.4       PUBLIC        P2_4
  D:0008H         PUBLIC        NixieTable
  -------         PROC          _NIXIE
  D:0007H         SYMBOL        Location
  D:0004H         SYMBOL        Number
  C:0123H         LINE#         9
  C:0123H         LINE#         10
  C:0123H         LINE#         11
  C:0150H         LINE#         12
  C:0150H         LINE#         13
  C:0154H         LINE#         14
  C:0158H         LINE#         15
  C:015CH         LINE#         16
  C:0160H         LINE#         17
  C:0168H         LINE#         18
  C:0170H         LINE#         19
  C:0178H         LINE#         20
  C:017EH         LINE#         21
  C:017EH         LINE#         22
  C:0185H         LINE#         23
  C:018CH         LINE#         24
  C:018FH         LINE#         25
  -------         ENDPROC       _NIXIE
  -------         ENDMOD        NIXIE

  -------         MODULE        LCD1602
  C:0000H         SYMBOL        _ICE_DUMMY_
  D:0080H         PUBLIC        P0
  D:00A0H         PUBLIC        P2
  C:0335H         PUBLIC        _LCD_WriteCommand
  C:02AFH         PUBLIC        _LCD_ShowNum
  C:0203H         PUBLIC        _LCD_ShowBinNum
  C:0311H         PUBLIC        LCD_Delay
  C:01CAH         PUBLIC        _LCD_ShowHexNum
  C:02A5H         PUBLIC        _LCD_WriteData
  B:00A0H.7       PUBLIC        LCD_EN
  C:02F7H         PUBLIC        LCD_Init
  C:026EH         PUBLIC        _LCD_ShowString
  C:033FH         PUBLIC        _LCD_ShowChar
  B:00A0H.6       PUBLIC        LCD_RS
  B:00A0H.5       PUBLIC        LCD_RW
  C:02CCH         PUBLIC        _LCD_SetCursor
  C:0190H         PUBLIC        _LCD_ShowSignedNum
  C:0247H         PUBLIC        _LCD_Pow
  -------         PROC          L?0048
  -------         ENDPROC       L?0048
  -------         PROC          LCD_DELAY
  -------         DO            
  D:0007H         SYMBOL        i
  D:0006H         SYMBOL        j
  -------         ENDDO         
  C:0311H         LINE#         15
  C:0311H         LINE#         16
  C:0311H         LINE#         19
  C:0313H         LINE#         20
BL51 BANKED LINKER/LOCATER V6.22                                                      09/11/2024  21:05:31  PAGE 5


  C:0315H         LINE#         22
  C:0315H         LINE#         23
  C:0317H         LINE#         24
  C:0319H         LINE#         25
  -------         ENDPROC       LCD_DELAY
  -------         PROC          _LCD_WRITECOMMAND
  D:0007H         SYMBOL        Command
  C:0335H         LINE#         32
  C:0335H         LINE#         33
  C:0335H         LINE#         34
  C:0337H         LINE#         35
  C:0337H         LINE#         36
  C:0337H         LINE#         37
  C:0337H         LINE#         38
  C:033AH         LINE#         39
  C:033CH         LINE#         40
  -------         ENDPROC       _LCD_WRITECOMMAND
  -------         PROC          L?0047
  -------         ENDPROC       L?0047
  -------         PROC          _LCD_WRITEDATA
  D:0007H         SYMBOL        Data
  C:02A5H         LINE#         48
  C:02A5H         LINE#         49
  C:02A5H         LINE#         50
  C:02A7H         LINE#         51
  C:02A7H         LINE#         52
  C:02A7H         LINE#         53
  C:02A7H         LINE#         54
  C:02AAH         LINE#         55
  C:02ACH         LINE#         56
  -------         ENDPROC       _LCD_WRITEDATA
  -------         PROC          _LCD_SETCURSOR
  D:0006H         SYMBOL        Line
  D:0005H         SYMBOL        Column
  C:02CCH         LINE#         65
  C:02CEH         LINE#         66
  C:02CEH         LINE#         67
  C:02D1H         LINE#         68
  C:02D1H         LINE#         69
  C:02D3H         LINE#         70
  C:02D5H         LINE#         71
  C:02D8H         LINE#         72
  C:02D8H         LINE#         73
  C:02E1H         LINE#         74
  C:02E1H         LINE#         75
  -------         ENDPROC       _LCD_SETCURSOR
  -------         PROC          LCD_INIT
  C:02F7H         LINE#         82
  C:02F7H         LINE#         83
  C:02F7H         LINE#         84
  C:02FCH         LINE#         85
  C:0301H         LINE#         86
  C:0306H         LINE#         87
  -------         ENDPROC       LCD_INIT
  -------         PROC          _LCD_SHOWCHAR
  D:0006H         SYMBOL        Line
  D:0005H         SYMBOL        Column
BL51 BANKED LINKER/LOCATER V6.22                                                      09/11/2024  21:05:31  PAGE 6


  D:0004H         SYMBOL        Char
  C:033FH         LINE#         97
  C:0341H         LINE#         98
  C:0341H         LINE#         99
  C:0344H         LINE#         100
  -------         ENDPROC       _LCD_SHOWCHAR
  -------         PROC          _LCD_SHOWSTRING
  D:0007H         SYMBOL        Line
  D:0005H         SYMBOL        Column
  D:002CH         SYMBOL        String
  -------         DO            
  D:0005H         SYMBOL        i
  -------         ENDDO         
  C:026EH         LINE#         110
  C:0274H         LINE#         111
  C:0274H         LINE#         113
  C:0277H         LINE#         114
  C:028AH         LINE#         115
  C:028AH         LINE#         116
  C:028DH         LINE#         117
  C:0290H         LINE#         118
  -------         ENDPROC       _LCD_SHOWSTRING
  C:023DH         SYMBOL        L?0046
  -------         PROC          L?0045
  -------         ENDPROC       L?0045
  C:023DH         SYMBOL        L?0046
  -------         PROC          _LCD_POW
  D:0028H         SYMBOL        X
  D:002AH         SYMBOL        Y
  -------         DO            
  D:0003H         SYMBOL        i
  D:0006H         SYMBOL        Result
  -------         ENDDO         
  C:0247H         LINE#         123
  C:024FH         LINE#         124
  C:024FH         LINE#         126
  C:0253H         LINE#         127
  C:0263H         LINE#         128
  C:0263H         LINE#         129
  C:026AH         LINE#         130
  C:026DH         LINE#         131
  C:026DH         LINE#         132
  -------         ENDPROC       _LCD_POW
  -------         PROC          _LCD_SHOWNUM
  D:0007H         SYMBOL        Line
  D:0005H         SYMBOL        Column
  D:001BH         SYMBOL        Number
  D:001DH         SYMBOL        Length
  -------         DO            
  D:0002H         SYMBOL        i
  -------         ENDDO         
  C:02AFH         LINE#         142
  C:02B3H         LINE#         143
  C:02B3H         LINE#         145
  C:02B6H         LINE#         146
  C:02BEH         LINE#         147
  C:02BEH         LINE#         148
BL51 BANKED LINKER/LOCATER V6.22                                                      09/11/2024  21:05:31  PAGE 7


  C:02C8H         LINE#         149
  C:02CBH         LINE#         150
  -------         ENDPROC       _LCD_SHOWNUM
  -------         PROC          _LCD_SHOWSIGNEDNUM
  D:0007H         SYMBOL        Line
  D:0005H         SYMBOL        Column
  D:0002H         SYMBOL        Number
  D:0016H         SYMBOL        Length
  -------         DO            
  D:0002H         SYMBOL        i
  D:0017H         SYMBOL        Number1
  -------         ENDDO         
  C:0190H         LINE#         160
  C:0190H         LINE#         161
  C:0190H         LINE#         164
  C:0193H         LINE#         165
  C:019BH         LINE#         166
  C:019BH         LINE#         167
  C:01A0H         LINE#         168
  C:01A4H         LINE#         169
  C:01A6H         LINE#         171
  C:01A6H         LINE#         172
  C:01ABH         LINE#         173
  C:01B4H         LINE#         174
  C:01B4H         LINE#         175
  C:01BCH         LINE#         176
  C:01BCH         LINE#         177
  C:01C6H         LINE#         178
  C:01C9H         LINE#         179
  -------         ENDPROC       _LCD_SHOWSIGNEDNUM
  -------         PROC          _LCD_SHOWHEXNUM
  D:0007H         SYMBOL        Line
  D:0005H         SYMBOL        Column
  D:0020H         SYMBOL        Number
  D:0022H         SYMBOL        Length
  -------         DO            
  D:0002H         SYMBOL        i
  D:0006H         SYMBOL        SingleNumber
  -------         ENDDO         
  C:01CAH         LINE#         189
  C:01CEH         LINE#         190
  C:01CEH         LINE#         192
  C:01D1H         LINE#         193
  C:01D9H         LINE#         194
  C:01D9H         LINE#         195
  C:01EFH         LINE#         196
  C:01F5H         LINE#         197
  C:01F5H         LINE#         198
  C:01F7H         LINE#         199
  C:01F9H         LINE#         201
  C:01F9H         LINE#         202
  C:01FFH         LINE#         203
  C:01FFH         LINE#         204
  C:0202H         LINE#         205
  -------         ENDPROC       _LCD_SHOWHEXNUM
  -------         PROC          _LCD_SHOWBINNUM
  D:0007H         SYMBOL        Line
BL51 BANKED LINKER/LOCATER V6.22                                                      09/11/2024  21:05:31  PAGE 8


  D:0005H         SYMBOL        Column
  D:0025H         SYMBOL        Number
  D:0027H         SYMBOL        Length
  -------         DO            
  D:0002H         SYMBOL        i
  -------         ENDDO         
  C:0203H         LINE#         215
  C:0207H         LINE#         216
  C:0207H         LINE#         218
  C:020AH         LINE#         219
  C:0212H         LINE#         220
  C:0212H         LINE#         221
  C:0237H         LINE#         222
  C:023AH         LINE#         223
  -------         ENDPROC       _LCD_SHOWBINNUM
  -------         ENDMOD        LCD1602

  -------         MODULE        ?C?CLDOPTR
  C:0003H         PUBLIC        ?C?CLDOPTR
  -------         ENDMOD        ?C?CLDOPTR

  -------         MODULE        ?C?IMUL
  C:0030H         PUBLIC        ?C?IMUL
  -------         ENDMOD        ?C?IMUL

  -------         MODULE        ?C?UIDIV
  C:0042H         PUBLIC        ?C?UIDIV
  -------         ENDMOD        ?C?UIDIV

Program Size: data=48.0 xdata=0 code=841
LINK/LOCATE RUN COMPLETE.  0 WARNING(S),  0 ERROR(S)
