:03000000020003F8
:0C000300787FE4F6D8FD75811102004AF8
:0C0135000A083F065B4F666D7D077F6F78
:1000FC00E4FDFC7F0812008FE4FDFC7F0712008FEB
:10010C007D027C007F0612008F7D017C007F051232
:04011C00008F80DCF4
:10008F00EF14B4080050549000A475F003A4C58376
:10009F0025F0C583730200BC0200C00200C4020039
:1000AF00C80200CC0200D40200DC0200E4D2A4801B
:1000BF000ED2A48012D2A48016D2A4801AC2A4D2C7
:1000CF00A3D2A28016C2A4D2A3C2A2800EC2A4C27F
:1000DF00A3D2A28006C2A4C2A3C2A274082DF8E6BE
:0D00EF00F5807F017E00120120E4F58022E3
:10012000EF1FAC0670011E4C600A7D027CEFDCFE06
:04013000DDFC80EC86
:0101340022A8
:10000F000200FCE493A3F8E493A34003F68001F20B
:10001F0008DFF48029E493A3F85407240CC8C333F2
:10002F00C4540F4420C8834004F456800146F6DFC1
:10003F00E4800B0102040810204080900135E47E1B
:10004F00019360BCA3FF543F30E509541FFEE493B6
:10005F00A360010ECF54C025E060A840B8E493A37D
:10006F00FAE493A3F8E493A3C8C582C8CAC583CAA8
:10007F00F0A3C8C582C8CAC583CADFE9DEE780BE60
:0101410000BD
:00000001FF
