BL51 BANKED LINKER/LOCATER V6.22                                                        09/11/2024  19:57:32  PAGE 1


BL51 BANKED LINKER/LOCATER V6.22, INVOKED BY:
D:\PROGRAM FILES\KEIL_V5\C51\BIN\BL51.EXE .\Objects\STARTUP.obj, .\Objects\main.obj TO .\Objects\project PRINT (.\Listin
>> gs\project.m51) RAMSIZE (256)


MEMORY MODEL: SMALL


INPUT MODULES INCLUDED:
  .\Objects\STARTUP.obj (?C_STARTUP)
  .\Objects\main.obj (MAIN)
  D:\PROGRAM FILES\KEIL_V5\C51\LIB\C51S.LIB (?C_INIT)


LINK MAP OF MODULE:  .\Objects\project (?C_STARTUP)


            TYPE    BASE      LENGTH    RELOCATION   SEGMENT NAME
            -----------------------------------------------------

            * * * * * * *   D A T A   M E M O R Y   * * * * * * *
            REG     0000H     0008H     ABSOLUTE     "REG BANK 0"
            DATA    0008H     000AH     UNIT         ?DT?MAIN
            IDATA   0012H     0001H     UNIT         ?STACK

            * * * * * * *   C O D E   M E M O R Y   * * * * * * *
            CODE    0000H     0003H     ABSOLUTE     
            CODE    0003H     008CH     UNIT         ?C_C51STARTUP
            CODE    008FH     006DH     UNIT         ?PR?_NIXIE?MAIN
            CODE    00FCH     0024H     UNIT         ?PR?MAIN?MAIN
            CODE    0120H     0015H     UNIT         ?PR?_DELAY?MAIN
            CODE    0135H     000DH     UNIT         ?C_INITSEG



OVERLAY MAP OF MODULE:   .\Objects\project (?C_STARTUP)


SEGMENT
  +--> CALLED SEGMENT
---------------------
?C_C51STARTUP
  +--> ?PR?MAIN?MAIN
  +--> ?C_INITSEG

?PR?MAIN?MAIN
  +--> ?PR?_NIXIE?MAIN

?PR?_NIXIE?MAIN
  +--> ?PR?_DELAY?MAIN



SYMBOL TABLE OF MODULE:  .\Objects\project (?C_STARTUP)

  VALUE           TYPE          NAME
  ----------------------------------

BL51 BANKED LINKER/LOCATER V6.22                                                      09/11/2024  19:57:32  PAGE 2


  -------         MODULE        ?C_STARTUP
  C:0003H         SEGMENT       ?C_C51STARTUP
  I:0012H         SEGMENT       ?STACK
  C:0000H         PUBLIC        ?C_STARTUP
  D:00E0H         SYMBOL        ACC
  D:00F0H         SYMBOL        B
  D:0083H         SYMBOL        DPH
  D:0082H         SYMBOL        DPL
  N:0000H         SYMBOL        IBPSTACK
  N:0100H         SYMBOL        IBPSTACKTOP
  N:0080H         SYMBOL        IDATALEN
  C:0006H         SYMBOL        IDATALOOP
  N:0000H         SYMBOL        PBPSTACK
  N:0100H         SYMBOL        PBPSTACKTOP
  N:0000H         SYMBOL        PDATALEN
  N:0000H         SYMBOL        PDATASTART
  N:0000H         SYMBOL        PPAGE
  N:0000H         SYMBOL        PPAGEENABLE
  D:00A0H         SYMBOL        PPAGE_SFR
  D:0081H         SYMBOL        SP
  C:0003H         SYMBOL        STARTUP1
  N:0000H         SYMBOL        XBPSTACK
  N:0000H         SYMBOL        XBPSTACKTOP
  N:0000H         SYMBOL        XDATALEN
  N:0000H         SYMBOL        XDATASTART
  C:0000H         LINE#         126
  C:0003H         LINE#         133
  C:0005H         LINE#         134
  C:0006H         LINE#         135
  C:0007H         LINE#         136
  C:0009H         LINE#         185
  C:000CH         LINE#         196
  -------         ENDMOD        ?C_STARTUP

  -------         MODULE        MAIN
  C:0000H         SYMBOL        _ICE_DUMMY_
  C:008FH         PUBLIC        _Nixie
  D:0080H         PUBLIC        P0
  B:00A0H.2       PUBLIC        P2_2
  B:00A0H.3       PUBLIC        P2_3
  B:00A0H.4       PUBLIC        P2_4
  C:00FCH         PUBLIC        main
  D:0008H         PUBLIC        NixieTable
  C:0120H         PUBLIC        _Delay
  -------         PROC          MAIN
  C:00FCH         LINE#         8
  C:00FCH         LINE#         9
  C:00FCH         LINE#         11
  C:00FCH         LINE#         12
  C:00FCH         LINE#         13
  C:0104H         LINE#         14
  C:010CH         LINE#         15
  C:0115H         LINE#         16
  C:011EH         LINE#         17
  -------         ENDPROC       MAIN
  -------         PROC          _NIXIE
  D:0007H         SYMBOL        Location
BL51 BANKED LINKER/LOCATER V6.22                                                      09/11/2024  19:57:32  PAGE 3


  D:0004H         SYMBOL        Number
  C:008FH         LINE#         19
  C:008FH         LINE#         20
  C:008FH         LINE#         21
  C:00BCH         LINE#         22
  C:00BCH         LINE#         23
  C:00C0H         LINE#         24
  C:00C4H         LINE#         25
  C:00C8H         LINE#         26
  C:00CCH         LINE#         27
  C:00D4H         LINE#         28
  C:00DCH         LINE#         29
  C:00E4H         LINE#         30
  C:00EAH         LINE#         31
  C:00EAH         LINE#         32
  C:00F1H         LINE#         33
  C:00F8H         LINE#         34
  C:00FBH         LINE#         35
  -------         ENDPROC       _NIXIE
  -------         PROC          _DELAY
  D:0006H         SYMBOL        ms
  -------         DO            
  D:0005H         SYMBOL        i
  D:0004H         SYMBOL        j
  -------         ENDDO         
  C:0120H         LINE#         36
  C:0120H         LINE#         37
  C:0120H         LINE#         39
  C:012AH         LINE#         40
  C:012AH         LINE#         41
  C:012CH         LINE#         42
  C:012EH         LINE#         44
  C:012EH         LINE#         45
  C:0130H         LINE#         46
  C:0132H         LINE#         47
  C:0134H         LINE#         48
  -------         ENDPROC       _DELAY
  -------         ENDMOD        MAIN

Program Size: data=19.0 xdata=0 code=322
LINK/LOCATE RUN COMPLETE.  0 WARNING(S),  0 ERROR(S)
