BL51 BANKED LINKER/LOCATER V6.22                                                        09/09/2024  21:34:33  PAGE 1


BL51 BANKED LINKER/LOCATER V6.22, INVOKED BY:
D:\PROGRAM FILES\KEIL_V5\C51\BIN\BL51.EXE .\Objects\STARTUP.obj, .\Objects\main.obj TO .\Objects\project PRINT (.\Listin
>> gs\project.m51)


MEMORY MODEL: SMALL


INPUT MODULES INCLUDED:
  .\Objects\STARTUP.obj (?C_STARTUP)
  .\Objects\main.obj (MAIN)


LINK MAP OF MODULE:  .\Objects\project (?C_STARTUP)


            TYPE    BASE      LENGTH    RELOCATION   SEGMENT NAME
            -----------------------------------------------------

            * * * * * * *   D A T A   M E M O R Y   * * * * * * *
            REG     0000H     0008H     ABSOLUTE     "REG BANK 0"
            DATA    0008H     0001H     UNIT         _DATA_GROUP_
            IDATA   0009H     0001H     UNIT         ?STACK

            * * * * * * *   C O D E   M E M O R Y   * * * * * * *
            CODE    0000H     0003H     ABSOLUTE     
            CODE    0003H     0057H     UNIT         ?PR?MAIN?MAIN
            CODE    005AH     0019H     UNIT         ?PR?_DELAY?MAIN
            CODE    0073H     000CH     UNIT         ?C_C51STARTUP



OVERLAY MAP OF MODULE:   .\Objects\project (?C_STARTUP)


SEGMENT                          DATA_GROUP 
  +--> CALLED SEGMENT          START    LENGTH
----------------------------------------------
?C_C51STARTUP                  -----    -----
  +--> ?PR?MAIN?MAIN

?PR?MAIN?MAIN                  0008H    0001H
  +--> ?PR?_DELAY?MAIN



SYMBOL TABLE OF MODULE:  .\Objects\project (?C_STARTUP)

  VALUE           TYPE          NAME
  ----------------------------------

  -------         MODULE        ?C_STARTUP
  C:0073H         SEGMENT       ?C_C51STARTUP
  I:0009H         SEGMENT       ?STACK
  C:0000H         PUBLIC        ?C_STARTUP
  D:00E0H         SYMBOL        ACC
  D:00F0H         SYMBOL        B
  D:0083H         SYMBOL        DPH
BL51 BANKED LINKER/LOCATER V6.22                                                      09/09/2024  21:34:33  PAGE 2


  D:0082H         SYMBOL        DPL
  N:0000H         SYMBOL        IBPSTACK
  N:0100H         SYMBOL        IBPSTACKTOP
  N:0080H         SYMBOL        IDATALEN
  C:0076H         SYMBOL        IDATALOOP
  N:0000H         SYMBOL        PBPSTACK
  N:0100H         SYMBOL        PBPSTACKTOP
  N:0000H         SYMBOL        PDATALEN
  N:0000H         SYMBOL        PDATASTART
  N:0000H         SYMBOL        PPAGE
  N:0000H         SYMBOL        PPAGEENABLE
  D:00A0H         SYMBOL        PPAGE_SFR
  D:0081H         SYMBOL        SP
  C:0073H         SYMBOL        STARTUP1
  N:0000H         SYMBOL        XBPSTACK
  N:0000H         SYMBOL        XBPSTACKTOP
  N:0000H         SYMBOL        XDATALEN
  N:0000H         SYMBOL        XDATASTART
  C:0000H         LINE#         126
  C:0073H         LINE#         133
  C:0075H         LINE#         134
  C:0076H         LINE#         135
  C:0077H         LINE#         136
  C:0079H         LINE#         185
  C:007CH         LINE#         196
  -------         ENDMOD        ?C_STARTUP

  -------         MODULE        MAIN
  C:0000H         SYMBOL        _ICE_DUMMY_
  D:00A0H         PUBLIC        P2
  B:00B0H.0       PUBLIC        P3_0
  B:00B0H.1       PUBLIC        P3_1
  C:0003H         PUBLIC        main
  C:005EH         PUBLIC        _Delay
  -------         PROC          MAIN
  -------         DO            
  D:0008H         SYMBOL        LEDNum
  -------         ENDDO         
  C:0003H         LINE#         5
  C:0003H         LINE#         6
  C:0003H         LINE#         7
  C:0006H         LINE#         8
  C:0009H         LINE#         9
  C:0009H         LINE#         10
  C:0009H         LINE#         11
  C:000CH         LINE#         12
  C:000CH         LINE#         13
  C:000FH         LINE#         14
  C:0012H         LINE#         15
  C:0015H         LINE#         17
  C:0017H         LINE#         18
  C:001EH         LINE#         19
  C:001EH         LINE#         20
  C:0021H         LINE#         21
  C:0021H         LINE#         22
  C:0031H         LINE#         23
  C:0031H         LINE#         25
BL51 BANKED LINKER/LOCATER V6.22                                                      09/09/2024  21:34:33  PAGE 3


  C:0034H         LINE#         26
  C:0034H         LINE#         27
  C:0037H         LINE#         28
  C:003AH         LINE#         29
  C:003DH         LINE#         31
  C:0041H         LINE#         32
  C:0041H         LINE#         33
  C:0044H         LINE#         34
  C:0046H         LINE#         35
  C:0048H         LINE#         36
  C:0048H         LINE#         37
  C:0058H         LINE#         38
  C:0058H         LINE#         39
  -------         ENDPROC       MAIN
  C:005AH         SYMBOL        L?0027
  -------         PROC          L?0026
  -------         ENDPROC       L?0026
  C:005AH         SYMBOL        L?0027
  -------         PROC          _DELAY
  D:0006H         SYMBOL        ms
  -------         DO            
  D:0005H         SYMBOL        i
  D:0004H         SYMBOL        j
  -------         ENDDO         
  C:005EH         LINE#         41
  C:005EH         LINE#         42
  C:005EH         LINE#         44
  C:0068H         LINE#         45
  C:0068H         LINE#         46
  C:006AH         LINE#         47
  C:006CH         LINE#         49
  C:006CH         LINE#         50
  C:006EH         LINE#         51
  C:0070H         LINE#         52
  C:0072H         LINE#         53
  -------         ENDPROC       _DELAY
  -------         ENDMOD        MAIN

Program Size: data=10.0 xdata=0 code=127
LINK/LOCATE RUN COMPLETE.  0 WARNING(S),  0 ERROR(S)
